{
  "contractName": "Secret",
  "abi": [
    {
      "constant": false,
      "inputs": [
        {
          "internalType": "string",
          "name": "message",
          "type": "string"
        }
      ],
      "name": "encrypt",
      "outputs": [],
      "payable": false,
      "stateMutability": "nonpayable",
      "type": "function"
    },
    {
      "constant": true,
      "inputs": [],
      "name": "get_hash",
      "outputs": [
        {
          "internalType": "bytes32",
          "name": "",
          "type": "bytes32"
        }
      ],
      "payable": false,
      "stateMutability": "view",
      "type": "function"
    },
    {
      "constant": true,
      "inputs": [
        {
          "internalType": "bytes32",
          "name": "key",
          "type": "bytes32"
        }
      ],
      "name": "decrypt",
      "outputs": [
        {
          "internalType": "string",
          "name": "",
          "type": "string"
        }
      ],
      "payable": false,
      "stateMutability": "view",
      "type": "function"
    },
    {
      "constant": false,
      "inputs": [
        {
          "internalType": "bytes32",
          "name": "key",
          "type": "bytes32"
        }
      ],
      "name": "del_hash",
      "outputs": [],
      "payable": false,
      "stateMutability": "nonpayable",
      "type": "function"
    }
  ],
  "bytecode": "0x608060405234801561001057600080fd5b506104a8806100206000396000f3fe608060405234801561001057600080fd5b506004361061004c5760003560e01c80631c357848146100515780633a5b5bde1461007f57806395e8f3e71461013a5780639fc137e014610158575b600080fd5b61007d6004803603602081101561006757600080fd5b81019080803590602001909291905050506101ff565b005b6101386004803603602081101561009557600080fd5b81019080803590602001906401000000008111156100b257600080fd5b8201836020820111156100c457600080fd5b803590602001918460018302840111640100000000831117156100e657600080fd5b91908080601f016020809104026020016040519081016040528093929190818152602001838380828437600081840152601f19601f820116905080830192505050505050509192919290505050610220565b005b6101426102c8565b6040518082815260200191505060405180910390f35b6101846004803603602081101561016e57600080fd5b81019080803590602001909291905050506102d2565b6040518080602001828103825283818151815260200191508051906020019080838360005b838110156101c45780820151818401526020810190506101a9565b50505050905090810190601f1680156101f15780820380516001836020036101000a031916815260200191505b509250505060405180910390f35b600080828152602001908152602001600020600061021d9190610386565b50565b6000816040516020018082805190602001908083835b602083106102595780518252602082019150602081019050602083039250610236565b6001836020036101000a038019825116818451168082178552505050505050905001915050604051602081830303815290604052805190602001209050806001819055508160008083815260200190815260200160002090805190602001906102c39291906103ce565b505050565b6000600154905090565b60606000808381526020019081526020016000208054600181600116156101000203166002900480601f01602080910402602001604051908101604052809291908181526020018280546001816001161561010002031660029004801561037a5780601f1061034f5761010080835404028352916020019161037a565b820191906000526020600020905b81548152906001019060200180831161035d57829003601f168201915b50505050509050919050565b50805460018160011615610100020316600290046000825580601f106103ac57506103cb565b601f0160209004906000526020600020908101906103ca919061044e565b5b50565b828054600181600116156101000203166002900490600052602060002090601f016020900481019282601f1061040f57805160ff191683800117855561043d565b8280016001018555821561043d579182015b8281111561043c578251825591602001919060010190610421565b5b50905061044a919061044e565b5090565b61047091905b8082111561046c576000816000905550600101610454565b5090565b9056fea265627a7a72315820bb01969680cecd56197c35945010d1533e0e390307e062823436ee77876e168164736f6c63430005100032",
  "source": "pragma solidity ^0.5.1;\r\n\r\ncontract Secret{\r\n    \r\n    mapping(bytes32 => string) hash;\r\n    bytes32 random;\r\n    function encrypt(string memory message) public{\r\n        bytes32 temp = keccak256(abi.encodePacked(message));\r\n        random = temp;\r\n        hash[temp] = message;\r\n    }\r\n    function get_hash() public view returns(bytes32){\r\n        return random;\r\n    }\r\n    function decrypt(bytes32 key) public view returns(string memory){\r\n        return hash[key];\r\n    }\r\n    function del_hash(bytes32 key) public{\r\n        delete(hash[key]);\r\n    }\r\n   \r\n}",
  "sourcePath": "C:/Users/HP/OneDrive/Desktop/GIT/Encrypt-Decrypt/src/contracts/Secret.sol",
  "compiler": {
    "name": "solc",
    "version": "0.5.16+commit.9c3226ce.Emscripten.clang"
  },
  "schemaVersion": "3.3.4",
  "updatedAt": "2021-11-04T06:50:02.212Z",
  "networkType": "ethereum",
  "devdoc": {
    "methods": {}
  },
  "userdoc": {
    "methods": {}
  }
}